:020000040800F2
:100000003005002045010008631B0008451A000860
:10001000611B000825020008E92900080000000013
:10002000000000000000000000000000852600081D
:100030003502000800000000851B00088726000824
:100040005F0100085F0100085F0100085F01000810
:100050005F0100085F0100085F0100085F01000800
:100060005F0100085F0100085F0100085F010008F0
:100070005F0100085F010008290200085F01000815
:100080005F0100085F0100085F0100085F010008D0
:100090005F0100085F0100085F0100085F010008C0
:1000A0005F0100085F0100085F0100085F010008B0
:1000B0005F0100085F0100085F0100085F010008A0
:1000C0005F0100085F0100085F0100085F01000890
:1000D0005F010008DD2900085F0100085F010008DA
:1000E0005F0100085F0100085F0100085F01000870
:1000F0005F0100085F0100085F0100085F01000860
:100100005F010008C11B00085F0100085F010008D3
:100110005F0100085F0100085F0100085F0100083F
:100120005F0100085F0100085F0100085F0100082F
:10013000DFF80CD000F018F8004800470B2A000840
:10014000300500200648804706480047FEE7FEE7E6
:10015000FEE7FEE7FEE7FEE7FEE7FEE7FEE7FEE777
:10016000FD26000831010008064C074D06E0E06856
:1001700040F0010394E8070098471034AC42F6D3EE
:10018000FFF7DAFF542A0008742A000801460148E4
:1001900000F0EFBF1C00002010B5044800F0FBFF8A
:1001A000042801D0012010BD002010BD1C0000203B
:1001B00038B501208DF800009DF80000012801D01D
:1001C000012038BD064801F0DDF8040006D14FF4E7
:1001D0000061034800F0A3FE00B10124204638BDB1
:1001E0001C00002038B50024009313460A4601463F
:1001F000034801F041F900B10124204638BD000058
:100200001C00002038B50024009313460A4601461E
:10021000034801F00DFA00B10124204638BD00006A
:100220001C000020FEE70000014800F0BFB80000FD
:10023000E000002070470022AFF3008030B50E4B85
:10024000054601205C7A012C15D8587A00241C54EC
:10025000587A03EB800045605D7A03F108002A5468
:10026000587A421C5A72303008703A2048702F2059
:100270008870CC70002030BD240100202DE9F05F93
:1002800090F821100024022903D004218163012465
:1002900085E001680A6822F00E020A6001680A68B7
:1002A00022F001020A603F4E3E4FB215DFF8F4C063
:1002B000DFF8F090DFF8ECA0DFF8E8B0DFF8E4E07A
:1002C0000168783F13011502ACF1640CA9F15009E3
:1002D000AAF13C0AABF1280BAEF1140E4FF48018D2
:1002E000B14227D9B9420ED0614512D049451DD03F
:1002F000514518D0594518D0714501D1424615E0F5
:10030000294EB14201D1012210E0274E1436B142EC
:1003100001D110220AE0244E2836B14206D0224AEA
:100320003C32914201D11A4600E02A461E49091F7B
:100330000A602BE0B94213D0614517D0494522D05D
:1003400051451DD059451DD0714501D142461AE095
:10035000B14202D14FF0807215E0134EB14201D18B
:10036000012210E0104E1436B14201D110220AE0F1
:100370000D4E2836B14206D00B4A3C32914201D193
:100380001A4600E02A46074980394A60012180F870
:100390002110002180F82010416B01B188472046D0
:1003A000BDE8F09F80000240080402402DE9F05FA4
:1003B000C16B0A6801680B68046C4FF0040808FA06
:1003C00004F8844D844E854FDFF814C2DFF8149290
:1003D000DFF814A2DFF814B2DFF814E218EA020F13
:1003E00065D05FEA437862D50A68920603D40A684A
:1003F00022F004020A60DFF8F0814FF480620168A5
:1004000008F1140813011402414524D9A9420DD062
:10041000B1420FD0B9421AD0614515D0494515D027
:10042000514501D1120312E0594501D104220EE0D9
:10043000714501D140220AE06D4D1435A94206D024
:100440006B4A2832914201D11A4600E022466749A0
:10045000091F0A6029E0A94213D0B14215D0B94260
:1004600020D061451BD049451BD0514502D14FF4E6
:10047000800217E0414502D14FF0806212E05945F9
:1004800001D104220EE0714501D140220AE0584D0D
:100490001435A94206D0564A2832914201D11A4653
:1004A00000E022464B4908394A60C16A71E04FF0CA
:1004B000020808FA04F818EA020F70D05FEA83789D
:1004C0006DD50A68920606D40A6822F00A020A600C
:1004D000012180F82110DFF810814FF400720168CB
:1004E00008F1140813011402414524D9A9420DD082
:1004F000B1420FD0B9421AD0614515D0494515D047
:10050000514501D1120312E0594501D102220EE0FA
:10051000714501D120220AE0354D1435A94206D09B
:10052000334A2832914201D11A4600E022462F492F
:10053000091F0A6029E0A94213D0B14215D0B9427F
:1005400020D061451BD049451BD0514502D14FF405
:10055000001217E0414502D14FF0007212E05945F8
:1005600001D102220EE0714501D120220AE0204D86
:100570001435A94206D01E4A2832914201D11A46AA
:1005800000E02246134908394A60002180F8201013
:10059000816A00291CD0BDE8F05F0847FFE7082505
:1005A000A540154214D01A0712D50A6822F00E028F
:1005B0000A6090F84020C36B012101FA02F25A60F0
:1005C000816380F82110002180F82010016BE0E7A2
:1005D000BDE8F09F080002401C00024030000240CD
:1005E00044000240580002406C00024008040240EF
:1005F0001C04024030B560B11C4A036814219342C8
:1006000009D21B4A1A44B2FBF1F18900016419496D
:100610000AE0012030BD154A52421A44B2FBF1F102
:100620008900016411490839C163022180F8211051
:100630001A6843F6F0718A43F0E901142143D0E9C6
:1006400002452C43214304692143446921438469C1
:10065000214311431960002141628162C16201633B
:100660004163012242770177084630BD0804024009
:10067000F8FFFDBF0000024070B5044600F008F925
:100680000546601C02D004480078044400F000F9DC
:10069000401BA042FAD370BD0C0000202DE9F84F9A
:1006A000DFF8B8A100220AF1040B144601274FF02D
:1006B0000F090BF1040E00BF0B6807FA04F52B407D
:1006C000AB4274D1DFF898C14E68A6EB0C086645C2
:1006D0002BD00DDC032E34D005DC36B3012E19D01F
:1006E000022E2FD11BE0112E16D0122E2AD119E086
:1006F000B8F5881F19D006DCB8F5803F15D0B8F5DD
:10070000801F1FD111E0B8F5001F0ED0B8F5041FEF
:1007100018D10AE0CA6815E0CA68121D12E0CA685A
:1007200008320FE0CA680C320CE08A682AB1012A4C
:100730004FF0080203D0456104E0042202E00561A5
:1007400000E00022FF2B01D8064601E000F104067C
:100750004FEA840501D9A5F12005D6F800C009FAB1
:1007600005F82CEA080C02FA05F54CEA050CC6F867
:1007700000C04D68ED006AD53A4DAE6946F00106FD
:10078000AE61AD6924F0030605F001050095364D14
:1007900006EB050CDCF80850A6074FEA167809FAB4
:1007A00008F6B543314EB04202D100261AE04EE0C1
:1007B0002F4EB04201D1012614E02E4EB04201D19D
:1007C00002260FE02C4EB04201D103260AE02B4E48
:1007D000B04201D1042605E0294EB04201D10526E0
:1007E00000E0062606FA08F62E43CCF808604D68AD
:1007F000DAF80060ED03554601D51E4300E09E4344
:100800002E604D68AD0305D5DBF800601E43CBF8C4
:10081000006004E0DBF800509D43CBF800504D68C9
:10082000DEF80060ED02754601D51E4300E09E43F0
:100830002E604D68AD0205D5084D0C352E681E435F
:100840002E6004E0054E0C3635689D433560641C0F
:10085000102CFFF431AFBDE8F88F00000004014018
:10086000000011100010024000000140000801408B
:10087000000C01400010014000140140001801402C
:10088000001C01400AB1016170470904FBE7000048
:1008900001488068704700000C0000200248816811
:1008A00002781144816070470C000020074810B5A1
:1008B000016841F010010160032000F095F800206C
:1008C00000F006F800F024F8002010BD00200240DF
:1008D00070B50D4D04464FF47A712878B1FBF0F0F5
:1008E0000A490968B1FBF0F000F07CFF48B9102C10
:1008F00007D200222146501E00F056F800206C60FE
:1009000070BD012070BD00000C0000200000002020
:100910001D4808B5816941F001018161806900F0DD
:1009200001000090052000F05FF8002211466FF0F2
:100930000B0000F039F8002211466FF00A0000F0B9
:1009400033F8002211466FF0090000F02DF8002264
:100950001146501F00F028F800221146101F00F029
:1009600023F800221146901E00F01EF800221146C6
:10097000501E00F019F80548416821F0E06141F08F
:100980008061416008BD000000100240000001408D
:1009900000F01F02012191404009800000F1E02099
:1009A000C0F8001170470000F0B40E4B1B680C46F5
:1009B000C3F30223C3F10705042D00D90425191D33
:1009C000072901D2002300E0DB1E012606FA05F10B
:1009D000491E214099409E40761E16403143F0BC8E
:1009E00001F0C0B80CED00E0064900F0070208680D
:1009F0004FF6FF03184040EA0220034A1043086004
:100A0000704700000CED00E00000FA052DE9F0470A
:100A1000DFF83C8105460E46D8F8000000F00700DC
:100A2000B0420CD2D8F8001021F007013143C8F8C9
:100A30000010D8F8000000F00700B04263D1287819
:100A4000444C800705D56068A96820F0F000084391
:100A500060602878C00745D06868012816D02168F2
:100A6000022816D0890700294DDA616821F00301B8
:100A700001436160FFF70CFF6968074641F2883067
:100A800001290FD00229814619D027E02168890366
:100A9000E9E78901E7E700BFFFF7FAFEC11B494517
:100AA00001D918E081466068C0F381000128F3D1C4
:100AB00018E000BFFFF7ECFEC11B49450BD860688A
:100AC000C0F381000228F5D10CE000BFFFF7E0FE83
:100AD000C11B494502D90320BDE8F087606810F0CA
:100AE0000C0FF3D1D8F80010404601F00701B142D5
:100AF0000BD9016821F0070131430160006800F063
:100B00000700B04201D00120E6E72878400705D56C
:100B10006068E96820F4E0600843606028780007B6
:100B200006D56068296920F4605040EAC100606021
:100B300000F03CF86168084AC1F30311515CC840F9
:100B4000064908600020FFF7C3FE0020C4E700004C
:100B50000020024000100240282A00080000002067
:100B60000148006870470000000000200448054963
:100B700000684968044AC1F30221515CC8407047CB
:100B80000000002000100240382A000804480549EF
:100B900000684968044AC1F3C221515CC8407047EB
:100BA0000000002000100240382A000812A185B081
:100BB0000FC98DE80F0014A0144A00680490516812
:100BC000134801F00C03042B10D0082B0ED1C1F3F5
:100BD0008343C9031DF803000AD5516804AAC1F371
:100BE0004041515C0A4A5043B0FBF1F005B07047F8
:100BF00008494843FAE7000002030405060708090C
:100C00000A0B0C0D0E0F1010010200000010024024
:100C100000127A0000093D002DE9F84F04460078E3
:100C2000B94DC00748D06868C0F38100012807D0DB
:100C30006868C0F38100022809D16868C00306D53E
:100C40002868800338D5606800286FD034E0606879
:100C5000B0F5803F0BD010B1B0F5A02F11D02868AF
:100C600020F480302860286820F4802002E0286882
:100C700040F480302860606888B1FFF709FE0646BE
:100C800009E0286840F480202860F0E7FFF700FEC4
:100C9000801B642875D828688003F7D50CE0FFF71F
:100CA000F7FD064605E000BFFFF7F2FD801B642854
:100CB000F0D828688003F7D42078944E80074FF04E
:100CC00001094FF000083BD5686810F00C0F07D001
:100CD0006868C0F38100022809D16868C00306D49F
:100CE0002868800714D5206901281FD110E02069E9
:100CF000B0B1C6F80090FFF7CBFD074605E000BF96
:100D0000FFF7C6FDC01B0228C4D828688007F7D5A6
:100D10002868616920F0F80040EAC10028600FE00F
:100D2000C6F80080FFF7B4FD074606E0E9E000BF23
:100D3000FFF7AEFDC01B022823D828688007F7D430
:100D4000207800072CD57248A169D9B1C0F800906D
:100D5000FFF79EFD074604E0FFF79AFDC01B02283F
:100D60000FD8686A8007F7D56A484FF4FA510068CF
:100D7000B0FBF1F0009000BF0098411E0091FAD244
:100D80000EE080E0C0F80080FFF782FD074604E037
:100D9000FFF77EFDC01B022875D8686A8007F7D46C
:100DA0002078400760D5E8690027C00008D4E869CA
:100DB00040F08050E861E869012700F08050009021
:100DC00055480168C90513D40168834641F4807110
:100DD0000160FFF75DFD824606E000BFFFF758FDAA
:100DE000A0EB0A0064284ED8DBF80000C005F5D55A
:100DF000E06801280AD008B1052813D0286A20F03D
:100E000001002862286A20F0040002E0286A40F00D
:100E100001002862E06841F2883B98B1FFF738FD95
:100E200082460BE0286A40F004002862EEE700BF2B
:100E3000FFF72EFDA0EB0A0159455AD8286A800712
:100E4000F6D50CE0FFF724FD824605E0FFF720FD14
:100E5000A0EB0A0159454CD8286A8007F6D41FB187
:100E6000E86920F08050E861E06988B36968C1F3FF
:100E70008101022945D00228C6F8608004D0FFF71E
:100E800007FD044638E034E0FFF702FD074604E0C2
:100E9000FFF7FEFCC01B02282BD828688001F7D47E
:100EA000206AB0F5803F05D16868A16820F4003061
:100EB00008436860D4E908010843696821F47411A3
:100EC00008436860C6F86090FFF7E2FC044606E05D
:100ED00015E000BFFFF7DCFC001B022809D82868DA
:100EE0008001F7D50BE000BFFFF7D2FC001B022802
:100EF00002D90320BDE8F88F28688001F4D40020CF
:100F0000F8E70120F6E7000000100240000042422E
:100F10008004424200000020007000407047FEB58F
:100F2000044603200D4684F83400606C032820D06A
:100F3000B5F5805F1DD0B5F5006F05D045B1A06B4C
:100F400040F00060A06309E0204601F0F0FA02E002
:100F5000204601F0C5FAA16B0143A163A06B0126F5
:100F600058B1216840F2FF50886384F83460012052
:100F7000FEBDA06B40F08050E4E7211DD4E9057070
:100F80000EC90095CDE90170206800F01FFE84F8BD
:100F900034600020FEBD7047F0B5426E120E93091A
:100FA0000B70C2F383034B7002F003028A70426E2F
:100FB000120CCA70B0F86420120A0A7190F864200A
:100FC0004A71826E4FF6FF73120E03EA0212CA8054
:100FD000826ECB88C2F3074243EA1213CB8002F041
:100FE0000F020A72B0F86820C2F30722D3094B72CD
:100FF000C2F380138B72C2F34013CB72C2F300139F
:101000000B7300264E73446C4FF4007701236CB1D0
:10101000012C43D0026840F2FF519163816B41F093
:101020008051816380F834300120F0BD9207120DA9
:101030000A6190F868200C6944EA82020A61C26E73
:101040000C69120E44EA92140C61C2F3C2040C75CE
:1010500002F007024A75C26EC2F3074254098C754A
:10106000C2F38204CC759207520F0A76B0F86C2056
:10107000C2F307240A7E42EAD4120A760A69521C95
:1010800042650D7EAD1CAA4042650D7A03FA05F556
:1010900085656D0A6A43C0E917271CE090F868204F
:1010A0009206920A0A61C26E0C69120E44EA02228A
:1010B0000A61C26E0C69C2F3074214430C61B0F8B6
:1010C0006C20C2F307240A69521C4FEA822242654F
:1010D000C0E916720766C4F3801201F8192F4FEAAF
:1010E00084624FEA52624A7010F86C2F4C7844EADE
:1010F000D2144C7002F07F028A7042684FEA12628A
:101100004FEAD214CC70C2F341140C71C2F38204C2
:101110004C714FEA82724FEA12728A7142688C797E
:10112000C2F3074244EA92148C71C2F34014CC71AA
:101130000E7202F001024A728288C2F307224FEA5D
:10114000D2148C72C2F38014CC72C2F340140C73AC
:10115000C2F300144C73C2F381048C7302F00302D7
:10116000CA7300794FEA500008744B744FF00000C6
:10117000F0BD426C0A60826C4A60C26C8A60026D8B
:10118000CA60426D0A61826D4A61C26D8A61006EF9
:10119000C8610020704770B50446B0F850000025C3
:1011A0000104206800F091FE18B1A16B0143A16316
:1011B00004E00021206800F0FCFC0546C5F3432054
:1011C00070BD000070B504460068416B4FF001052A
:1011D000CA0540F23A3149D52A0282632068C26BBF
:1011E0008A43C263206B0007206B22D5800702D49C
:1011F000206B800609D5206800F098FE28B1A16B0D
:101200000143A1632046FFF7C6FE216840F2FF506C
:10121000886384F83450206BC00702D1206B8007AC
:1012200003D5204600F001FA70BD204600F0FEF91B
:1012300070BD0006FCD5206B800609D5206800F043
:1012400075FE28B1A16B0143A1632046FFF7A3FE01
:10125000206BC007ECD1206B8007E9D42068C16AFD
:1012600021F00801C16284F83450DEE7426B520479
:1012700010D54FF480418163266A002506EB850175
:10128000206800F0CCFC6D1C082DF7D3206A2030BC
:10129000206270BD426B120410D54FF4004181638F
:1012A000A66A0025206800F0A7FC46F825006D1C02
:1012B000082DF7D3A06A2030A06270BD426B40F2C7
:1012C0003A231A42F9D0426B920703D5A26B42F03F
:1012D0000202A263426B120703D5A26B42F008021E
:1012E000A263426B920603D5A26B42F02002A26376
:1012F000426BD20603D5A26B42F01002A263426B8E
:10130000920503D5A26B42F00802A26340F2FF727D
:1013100082632068C26B8A43C263206B000623D5B8
:10132000206C58B115494163206CFEF7A7FF0028D7
:10133000C3D0206CBDE8704000F080BFE06B58B1B6
:101340000F494163E06BFEF799FF0028B5D0E06BD1
:10135000BDE8704000F04EBF0020A06384F8345018
:101360002046FFF7DBFD70BD206B0007FBD584F83E
:1013700034502046FFF70FFE70BD00003D220008EC
:10138000F521000870B5040004D094F8340000255D
:1013900010B105E0012070BD2577204600F038F837
:1013A000032084F83400204600F008F8A563256384
:1013B000012084F83400002070BD0000FEB5002537
:1013C0000446C3200095CDE901502B462A46294604
:1013D000206800F0FBFB0D4E46F8A05F206800F08F
:1013E00007FC012535600220FFF746F9204601F091
:1013F00026F820B9204600F0AFFF002805D084F879
:101400003450A16B0143A1630120FEBD00003042B6
:1014100030B50068144985B0884223D1134841692A
:1014200041F4806141614069022400F480600490CD
:101430004FF4F850CDE900040325694603950C48A4
:10144000FFF72CF90420CDE900046946039509480B
:10145000FFF724F9002211463120FFF7A5FA3120C9
:10146000FFF796FA05B030BD008001400010024041
:1014700000100140001401402DE9F04F87B09A465A
:1014800017460E460446DDF840B0FFF701FA00901B
:101490003EB194F83400012807D0A06B40F0005012
:1014A0000FE0A06B40F000600BE04FF00008C4F8C4
:1014B0003880E06D07EB0A01814204D9A06B40F04F
:1014C0000070A0637DE0032084F834002068C0F839
:1014D0002C80606C012800D07F024FF400712068DE
:1014E00000F0D6FB40F2FF59012530B12268C2F866
:1014F0003890A16B0143A16361E04FF0FF30019090
:101500004FEA4A200290902003900220CDE904087F
:10151000069501A9206800F036FBBAF1010F06D943
:10152000022020633946206800F040FC04E0256377
:101530003946206800F053FC0028D7D140F22A3801
:101540002068416B11EA080F22D1406B000409D5D5
:101550000027206800F050FB46F827007F1C082F6A
:10156000F7D32036BBF1000F05D0FFF791F90099B2
:10157000411A5945E4D32168C1F83890A06B40F076
:101580000040A06384F83450032007B0BDE8F08F1A
:10159000416BC90509D5BAF1010F06D9616C032960
:1015A00003D000F0C3FC0028A0D12068416B0907DC
:1015B00009D5C0F83890A06B40F0080028E084F806
:1015C00034500120E1E7416B890705D5C0F8389018
:1015D000A06B40F002001BE0416B89061AD5C0F8F1
:1015E0003890A06B40F0200012E000BF00F004FB38
:1015F00001C6BBF1000F05D0FFF74AF90099411A67
:10160000594507D32168C1F83890A06B40F00040DD
:10161000A063D4E72068416B8902E7D42168C1F850
:10162000389084F834500020AFE7704770470000CE
:101630002DE9F04F87B09A4616460D460446FFF74F
:1016400027F906903DB194F83400012807D0A06B2B
:1016500040F000500DE0A06B40F0006009E0002079
:10166000A063E26D06EB0A01914204D9A06B40F041
:101670000070A06390E0032184F834102168814653
:10168000C862606C012800D076024FF400712068B7
:1016900000F0FEFA40F2FF58012730B12268C2F88C
:1016A0003880A16B0143A16317E0BAF1010F06D99D
:1016B000202020633146206800F052FC05E0102015
:1016C00020633146206800F064FC060008D02168E1
:1016D000C1F83880A06B3043A06384F834705BE0BD
:1016E0004FF0FF3000904FEA4A2001909020029086
:1016F0004846CDE90407CDF80C90B9466946206804
:1017000000F041FA40F21A3B22E0406B40040AD557
:101710005FF0000705EB8701206800F080FA7F1C6E
:10172000082FF7D32035109830B1FFF7B1F806999C
:10173000411A109881420BD32168C1F83880A06B00
:101740003043A06384F83490032007B0BDE8F08FE5
:101750002068416B11EA0B0FD7D0416BC9050FD53B
:10176000BAF1010F0CD9616C032909D000F0DEFB3E
:1017700030B12268C2F83880A16B0143A16309E04F
:101780002068416B090709D5C0F83880A06B40F08C
:10179000080014E084F834900120D6E7416B8907F3
:1017A00005D5C0F83880A06B40F0020007E0416B1F
:1017B000C0F83880C90604D5A06B40F01000A063C3
:1017C000E8E784F834900020BFE74FF0E0210428D8
:1017D000086903D020F004000861704740F004005D
:1017E000FAE7704710B5401EB0F1807F01D30120A9
:1017F00010BD4FF0E02460610F21601700F0B2F9D6
:101800000020A06107202061002010BD10B5FFF767
:10181000E8FF10BD7047000070B50268044610680C
:10182000D168536910F00F0F50D003F0010501F497
:10183000907635435DD0C20705D0CA0503D5E26B6B
:1018400042F00102E263420705D5DA0703D0E26BFA
:1018500042F00202E263820705D5DA0703D0E26BA9
:1018600042F00402E263020705D5DA0703D0E26B17
:1018700042F00802E263E26B002A33D0800604D50E
:10188000880602D5204600F073FF20684069E16BAE
:10189000C0F38010090700D428B3204600F05AFF97
:1018A0002068416949061AD5416921F0400141612A
:1018B000606BA0B11B494163606BFEF7DFFC002841
:1018C00010D0606B416BBDE870400847830610D5AF
:1018D0008B060ED52046BDE8704000F049BF20467B
:1018E000FFF798FF70BD2046FFF794FF0020E063EC
:1018F00070BD030606D50B0604D52046BDE8704032
:1019000001F03AB84006F3D54806F1D5D168204633
:1019100021F04001D160202184F8391000F091F8C5
:1019200070BD00004527000870B5040004D094F88D
:101930003900002510B106E0012070BD84F8385050
:10194000204600F023F8242084F839002068C1687C
:1019500021F40051C160204600F056FF2068016963
:1019600021F4904101612068416921F02A0141611F
:101970002068C16841F40051C160E563202084F80B
:10198000390084F83A00002070BD000070B50646AA
:101990000068224986B088423DD12148816941F4DE
:1019A0008041816180691F4C00F4804004904FF4B5
:1019B00000700090022001900320039069462046A9
:1019C000FEF76CFE00252015CDE90005694620468E
:1019D0000295FEF763FE154C134820601020C4E901
:1019E00001058020C4E903052020C4E90550000258
:1019F000E0612046FEF7FEFD18B179210CA000F051
:101A0000F4FF34630222114625206662FEF7CCFF04
:101A10002520FEF7BDFF06B070BD00000038014074
:101A2000001002400008014044000240E000002095
:101A30002E2E2F5372632F75736172742E63000004
:101A400070477047FEE70000094808B5416941F05A
:101A5000010141614069002200F00100009011463F
:101A60000E20FEF7A1FFBDE808400E20FEF790BF54
:101A70000010024010B504490448FEF7DCFB02499F
:101A8000491E087010BD000005000020402A000813
:101A9000164810B5816986B041F0100181618169F5
:101AA00001F010010491816941F0040181618169B3
:101AB00001F004010491816941F020018161806994
:101AC0000B4C00F02000049000223F212046FEF73E
:101AD000D9FE3F200090012001900220039069462A
:101AE0002046FEF7DBFD06B010BD000000100240EE
:101AF00000100140064805490160002141608160F5
:101B0000C160016141610221816170470080014033
:101B10001C0000200D4810B50B4901604FF4E13165
:101B20004160002181600C22C160C0E90412816122
:101B3000C161FFF7F9FE002805D0BDE810404E2135
:101B400003A000F052BF10BD00380140A0000020EB
:101B50002E2E2F5372632F75736172742E630000E3
:101B6000FEE770470907090E002806DA00F00F00AB
:101B700000F1E02080F8141D704700F1E02080F8AB
:101B80000014704770470A6842624A688262D1E96D
:101B900002231A43D1E904310B43C16A1A4321F0ED
:101BA000F7011143C16200207047006800F0030094
:101BB000704708B5084414300090006808BD000064
:101BC0000148FFF7FFBA00001C00002070B50DF1BE
:101BD000100C11439CE870002343194329434268C9
:101BE000314347F6FF639A430A434260002070BDC9
:101BF0000321016000207047D0F8800070470A6818
:101C00008260D1E901231A43D1E903310B43C16852
:101C10001A436FF30B011143C1600020704709683C
:101C2000C0F880100020704710B586B004463720F9
:101C3000CDE9001040200290002003904FF4806016
:101C4000049069462046FFF7DAFF41F288323721D7
:101C5000204600F0B7F906B010BD000010B50446EC
:101C60000A4886B001432920CDE9001040200290A7
:101C7000002003904FF48060049069462046FFF7EF
:101C8000BEFF204600F054FA06B010BD00001080E0
:101C900010B586B004461020CDE900104020029017
:101CA000002003904FF48060049069462046FFF7BF
:101CB000A6FF41F288321021204600F083F906B0D9
:101CC00010BD10B586B004460620CDE900104020B6
:101CD0000290002003904FF48060049069462046F3
:101CE000FFF78DFF41F288320621204600F06AF9A5
:101CF00006B010BD30B585B00024054600940194AF
:101D00004FF480600294CDE9034069462846FFF70E
:101D100076FF0B484FF4FA510068B0FBF1F041F246
:101D200088314843401E03D24FF0004005B030BD1B
:101D3000696B0906F6D540F2FF50A8632046F5E727
:101D40000000002070B585B004464FF4D5700090B7
:101D500008204026CDE901060025C001CDE9035049
:101D600069462046FFF74BFF0F484FF4FA510068D1
:101D7000B0FBF1F041F288314843401E02D24FF0EF
:101D800000450DE0616B11F0450FF6D0606B400728
:101D900002D5A663042503E0606B400600D5A66368
:101DA00005B0284670BD00000000002010B586B0C8
:101DB00004461220CDE9001040200290002003903C
:101DC0004FF48060049069462046FFF718FF41F207
:101DD00088321221204600F0F5F806B010BD10B58B
:101DE00086B004461120CDE900104020029000206A
:101DF00003904FF48060049069462046FFF7FFFE91
:101E000041F288321121204600F0DCF806B010BD06
:101E100010B586B004460720CDE90020402002908E
:101E2000002003904FF48060049069462046FFF73D
:101E3000E6FE41F288320721204600F0C3F806B0E2
:101E400010BD10B586B0044600210220CDE9001077
:101E5000C020CDE902014FF480600490694620461D
:101E6000FFF7CDFE204600F03BF906B010BD10B5DF
:101E700086B004460920CDE90010C0200290002061
:101E800003904FF48060049069462046FFF7B7FE48
:101E9000204600F025F906B010BD10B586B0044606
:101EA00000213320CDE900104020CDE902010001DE
:101EB000049069462046FFF7A2FE41F288323321A2
:101EC000204600F07FF806B010BD10B586B004467D
:101ED0000D20CDE9001040200290002003904FF427
:101EE0008060049069462046FFF789FE41F28832FF
:101EF0000D21204600F066F806B010BD30B585B063
:101F00000C46054600210320CDE900104020CDE914
:101F100002010001049069462846FFF770FE224640
:101F20000321284600F024F905B030BD10B586B075
:101F3000044600210C20CDE900104020CDE902012B
:101F40000001049069462046FFF759FE034A0C2120
:101F5000204600F037F806B010BD000000E1F5059E
:101F600010B586B004461920CDE90010402002903B
:101F7000002003904FF48060049069462046FFF7EC
:101F80003EFE41F288321921204600F01BF806B0CF
:101F900010BD10B586B004461820CDE900104020D1
:101FA0000290002003904FF4806004906946204620
:101FB000FFF725FE41F288321821204600F002F892
:101FC00006B010BD444B10B51B684FF4FA54B3FB78
:101FD000F4F353435B1E02D24FF0004010BD426B3E
:101FE00012F0450FF6D0426B520703D504218163EE
:101FF000084610BD426BD20702D00121816303E085
:102000000269D2B28A4201D0012010BD40F2FF51D4
:1020100081630021FFF7CDFD3049084201D1002046
:1020200010BD002802DA4FF0007010BD410001D54C
:10203000402010BD810001D5802010BDC10002D517
:102040004FF4807010BD010102D54FF4007010BD37
:10205000410102D54FF4806010BDC10102D54FF49B
:10206000006010BD010202D54FF4805010BD410246
:1020700002D54FF4005010BD810202D54FF48040CC
:1020800010BDC10202D54FF4004010BD410302D57E
:102090004FF4003010BD810302D54FF4802010BDF5
:1020A000C10302D54FF4002010BD010402D54FF446
:1020B000801010BD410402D54FF4001010BD810402
:1020C00002D54FF4800010BD000702D54FF4000088
:1020D00010BD4FF4803010BD0000002008E0FFFD6F
:1020E00012494FF4FA520968B1FBF2F141F2883219
:1020F0005143491E02D24FF000407047426B12F02C
:10210000450FF6D0416B490703D50421816308468A
:102110007047416BC90703D00121816308467047AE
:1021200040F2FF5181630020704700000000002052
:102130000E494FF4FA520968B1FBF2F141F28832CC
:102140005143491E02D24FF000407047426B12F0DB
:10215000450FF6D0416B490703D50421816308463A
:10216000704740F2FF51816300207047000000205B
:102170001F4B10B51B684FF4FA54B3FBF4F341F254
:10218000883463435B1E02D24FF0004010BD446BA5
:1021900014F0450FF6D0436B5B0703D50421816330
:1021A000084610BD436BDB0702D00121816303E0C9
:1021B0000369DBB28B4201D0012010BD40F2FF5118
:1021C00081630021FFF7F5FC10F4604F04D0410457
:1021D00006D54FF4005010BD000C1080002010BD3B
:1021E000000402D54FF4805010BD4FF4803010BD74
:1021F0000000002070B5446A0025E06B00B1E56383
:10220000206C002816D12046FEF7C5FFA5630121EA
:1022100084F83410062801D005280BD12068FFF778
:1022200085FEA16B0843A063A06B0028204602D066
:10223000FEF774FE70BDFEF7AEFE70BD70B5446A69
:102240000025206C00B12564E06B002816D12046E3
:10225000FEF7A1FFA563012184F83410062801D000
:1022600005280BD12068FFF761FEA16B0843A0632E
:10227000A06B0028204602D0FEF750FE70BDFEF78E
:102280008AFE70BD2DE9F04F89B00E460446FEF778
:10229000FFFA00258346009501952F460821206806
:1022A000FFF7F6FC002834D1B4F850000104206890
:1022B000FFF7BAFC00282CD1401E4FF00808CDE9EA
:1022C000020830204FF00209CDE904090120CDE9D0
:1022D000067002A92068FFF756FC2068FFF7DDFDB5
:1022E000002816D1EA4640F22A472068416B39425D
:1022F00012D1416B890204D5FFF77EFC4AF8250014
:102300006D1CFEF7C5FAA0EB0B00401CEDD14FF0A1
:10231000004009B0BDE8F08F416B090703D5C0F854
:1023200038800820F5E7416B890703D5C0F838905D
:102330000220EEE7416B890603D520218163084620
:10234000E7E740F2FF518163009800BA706001989E
:1023500000BA30600020DCE710B590B004460120E0
:10236000ADF838002068FFF720FC002864D0606CCE
:10237000032842D02068FFF764FD00285AD10021CD
:102380002068FFF716FC606704212068FFF711FC46
:10239000A06708212068FFF70CFCE0670C2120688B
:1023A000FFF707FCC4F88000606C032825D00EA955
:1023B0002068FFF7A3FD00283CD1606C03281CD0E7
:1023C000BDF83800206501042068FFF750FD0028A3
:1023D00030D100212068FFF7ECFB60660421206803
:1023E000FFF7E7FBA06608212068FFF7E2FBE06645
:1023F0000C212068FFF7DDFB206704212068FFF730
:10240000D8FB000DE06403A92046FEF7C5FDB4F833
:102410005000002302042068FFF7FAFC002809D1CD
:1024200004F1100007C88DE8070094E80F00FFF7DB
:10243000CDFB002010B010BD4FF08060FAE72DE911
:10244000F8430025044600950068FFF753FC002878
:102450001AD12068FFF776FC4FF080784FF6FF76B0
:10246000D8B14FF08057A5640098411C0091B0424C
:102470001AD000212068FFF7D7FB20B9002120687F
:10248000FFF7ECFB10B13846BDE8F8830021206867
:10249000FFF78FFBC00FE7D01FE00127A76400986C
:1024A000411C0091B04201D14046EDE70021206877
:1024B000FFF7BAFB0028E7D14FF080412068FFF713
:1024C000CDFB0028E0D100212068FFF772FBC10F8F
:1024D000E5D0400001D5676400E065640020D3E7E3
:1024E0001CB5044600200090019000212068FFF7F1
:1024F00060FB800102D54FF400601CBD6946204698
:10250000FFF7C0FE0028F8D10198C0030CD5B4F83D
:10251000500001042068FFF787FB0028EDD100215F
:102520002068FFF7CEFB1CBD4FF080601CBD1CB5C2
:10253000044600200090019000212068FFF739FB3D
:10254000800102D54FF400601CBD69462046FFF7AC
:1025500099FE0028F8D1019840030CD5B4F850003A
:1025600001042068FFF760FB0028EDD102212068FC
:10257000FFF7A7FB1CBD4FF080601CBD10B5064CDB
:1025800001202070FDF714FE18B9207820F001001A
:102590002070207810BD00001800002010B51248EF
:1025A00088B014460078C00702D0032008B010BDE0
:1025B000B9B1012905D0022908D003290CD0042083
:1025C000F4E76846FDF7E2FD069809E06846FDF786
:1025D000DDFD0798208004E06846FDF7D7FD0798E9
:1025E00020600020E2E70000180000202DE9F04103
:1025F0001E46174608460125094C0A4B3246394605
:10260000FDF7F0FD28B109E0641E02D20120BDE80B
:10261000F081FDF7C1FD0028F6D100252846F6E738
:10262000A086010000E1F50510B5064C01202070E0
:10263000FDF7B2FD18B9207820F001002070207855
:1026400010BD0000180000202DE9F0411E4617467D
:1026500008460125094C0A4B32463946FDF7D2FDA2
:1026600028B109E0641E02D20120BDE8F081FDF727
:1026700093FD0028F6D100252846F6E7A086010044
:1026800000E1F505704710B5FEF708F9BDE8104008
:10269000FFF7BCB830B58FB001210804CDE90010B8
:1026A0000024029402250491CDE907504FF4E01074
:1026B00009906846FEF7B0FA00B1FEE70F20CDE9B9
:1026C0000A054FF48060CDE90C4002210AA80E945F
:1026D000FEF79CF900B1FEE7FEF742FA4FF47A717B
:1026E000B0FBF1F0FFF77EF80420FFF76EF8002250
:1026F0001146501EFEF758F90FB030BD0D48016865
:1027000041F00101016041680B4A114041600168DC
:102710000A4A11400160016821F48021016041688A
:1027200021F4FE0141604FF41F0181600449C003A0
:1027300008607047001002400000FFF8FFFFF6FE3F
:1027400008ED00E010B5406A0021C185C184FFF7A3
:1027500061F810BD0168CA6822F49072CA6001680D
:102760004A6922F001024A61202180F83A1070473C
:1027700010B590F83A10222901D0022010BD8168CE
:10278000B1F5805F11D00169002901681FD0496847
:1027900001F07F03816A4A1C82620B70C18D491E61
:1027A0000904090CC18518D02BE00269816A002A4E
:1027B0000268526805D0D2B20A80816A491C8162DF
:1027C000ECE7C2F308020A80816A891CF7E74A68CD
:1027D000816A4B1C83620A70E0E70168CA6822F0D4
:1027E0002002CA600168CA6822F48072CA60016867
:1027F0004A6922F001024A61202180F83A10FFF76D
:102800001FF9002010BD00002DE9F04104460068CA
:102810000169E26821F44051114301612169A06816
:102820000843616908432168CA6841F20C639A430E
:102830000243CA6020684169A26921F440711143D2
:1028400041614C4920686425322688423CD1FEF71C
:102850009DF900EBC00101EB001061688900B0FB3D
:10286000F1F7FEF793F900EBC00101EB001061688E
:10287000B0468900B0FBF1F0B0FBF5F06FF0180145
:10288000484307EB800106EB0110B0FBF5F000F0C8
:10289000F006FEF77BF900EBC00101EB0010616868
:1028A0008900B0FBF1F0B0FBF5F006EB0016FEF787
:1028B0006DF900EBC00101EB001061688900B0FB0D
:1028C000F1F7FEF763F93BE0FEF750F900EBC001CA
:1028D00001EB001061688900B0FBF1F7FEF746F9E3
:1028E00000EBC00101EB00106168B0468900B0FB4D
:1028F000F1F0B0FBF5F06FF01801484307EB8001F1
:1029000006EB0110B0FBF5F000F0F006FEF72EF933
:1029100000EBC00101EB001061688900B0FBF1F031
:10292000B0FBF5F006EB0016FEF720F900EBC00156
:1029300001EB001061688900B0FBF1F7FEF716F9B2
:1029400000EBC00101EB001061688900B0FBF1F001
:10295000B0FBF5F06FF01801484307EB800108EB7E
:102960000110B0FBF5F0216800F00F0030448860E2
:10297000BDE8F0810038014090F83910212901D0DC
:10298000022070478168B1F5805F016A0BD04A1C54
:102990000262026809785160C18C491E0904090C61
:1029A000C1840ED017E009880268C1F308015160A4
:1029B00001690029016A02D0491C0162ECE7891C07
:1029C000FBE70168CA6822F08002CA600068C1683B
:1029D00041F04001C1600020704700000148FEF74F
:1029E0001BBF0000A0000020FEE7FEE702E008C8D1
:1029F000121F08C1002AFAD170477047002001E079
:102A000001C1121F002AFBD17047FDF74FFFFFF7EE
:102A100041FEFFF73DF8FFF717F8FFF77BF8FFF7E8
:102A200069F8FFF727F8FEE700000000000000004B
:102A30000102030406070809000000000102030464
:102A40007D25000829260008ED25000849260008F4
:102A50009D250008742A0008000000201C000000CA
:102A6000EC290008902A00081C0000201405000032
:102A7000FC29000800A24A04000000000000000039
:102A80000100000010000000000000000100000034
:0400000508000131BD
:00000001FF
